:020000021000EC
:1080000000400020A9030200E5030200E70302008C
:108010000000000000000000000000000000000060
:10802000000000000000000000000000E903020062
:108030000000000000000000EB030200ED0302005E
:10804000EF030200D9AE0100650A0200EF0302004F
:10805000EF0302000000000021040200EF03020011
:10806000EF030200410C0200ED080200EF030200E2
:10807000EF030200EF030200EF030200EF03020030
:10808000EF030200EF030200EF030200EF03020020
:10809000EF0302007901020055010200EF03020024
:1080A000EF030200EF0302000000000000000000E8
:1080B00000000000000000000000000000000000C0
:1080C000054B0648033310B51B1A062B03D9044B86
:1080D000002B00D0984710BDA8200020A820002029
:1080E000000000000648074910B5091A8910CB0F97
:1080F0005918491003D0044B002B00D0984710BDED
:10810000A8200020A82000200000000010B5074C87
:108110002378002B09D1FFF7D3FF054B002B02D0AA
:10812000044800E000BF0123237010BDB0200020F0
:108130000000000070830200094B10B5002B03D033
:108140000849094800E000BF08480368002B02D135
:10815000FFF7C8FF10BD064B002BF9D09847F7E793
:1081600000000000B420002070830200A82000203E
:1081700000000000144B002B00D1124B9D46402202
:1081800092029A1A924600218B460F461148124AD3
:10819000121A0AF0F9FD0D4B002B00D098470C4B3A
:1081A000002B00D098470020002104000D000B4850
:1081B0000AF080FC0AF0CCFC200029000EF078FECA
:1081C0000AF096FC000008000040002000000000BB
:1081D00000000000A8200020482A00201D2B0200DB
:1081E00070B500258AB0224907A801F09FF907A9B8
:1081F00009A80CF021F81F4E1F4C2048019500954E
:108200003368226809A9F03002F04AFA09A80CF094
:1082100006F81B4B1A68AA4222D12268013222605A
:108220002268042A1EDC174908A801F07FF908A972
:1082300009A80CF001F8002310480193009333685B
:10824000226809A9F03002F02BFA09A80BF0E7FF29
:1082500008A80BF0E4FF07A80BF0E1FF0AB070BD1F
:108260001D60DDE70022226001321A60F3E7C0469C
:10827000977D0200542400204C240020D4200020AC
:1082800050240020A27D020070B500258AB022494A
:1082900007A801F04BF907A909A80BF0CDFF1F4C67
:1082A0001F4E204801950095236809A93268F030D7
:1082B00002F0F6F909A80BF0B2FF1B4B1968A942AE
:1082C00022D12268013222602268042A1EDC17496A
:1082D00008A801F02BF908A909A80BF0ADFF0023AD
:1082E0001048019300932368326809A9F03002F026
:1082F000D7F909A80BF093FF08A80BF090FF07A887
:108300000BF08DFF0AB070BD1D60DDE7002222601A
:1083100001321A60F3E7C046977D02005424002022
:108320004C240020D420002058240020A27D0200EC
:10833000D32330B50C4C0D4D21789B00013187B013
:10834000E818C9B2217002F0F9FD217805A80BF0F8
:10835000C5FE2800782205A9F03002F0FDF905A835
:108360000BF0A0FE07B030BD80200020D4200020FC
:10837000D32330B50C4C0D4D21789B00013987B0CB
:10838000E818C9B2217002F0D9FD217805A80BF0D8
:10839000A5FE2800782205A9F03002F0DDF905A835
:1083A0000BF080FE07B030BD80200020D4200020DC
:1083B00010B50400034B036040300BF073FE200047
:1083C00010BDC046D0720200F0B585B01F000AABE8
:1083D0001B880600029115000393002F1BD0282054
:1083E0000EF054FF6B4604001989039BAAB2009358
:1083F0003B000BF0F6FD336821005B6830009847C6
:10840000002806D020000BF003FE20000EF03AFFFB
:10841000024805B0F0BD0248FBE7C04616FCFFFF6E
:1084200017FCFFFF7FB52D4D280000F07DF9D32309
:108430009B00EC18200002F095FD294B20001978D4
:108440002E0002F07BFD20001024D036012102F026
:10845000EDFC244B0322012130000094FFF7B4FF10
:10846000214B0322022130000094FFF7ADFF1F4B88
:108470000422012130000094FFF7A6FF1C4B0422C8
:10848000022130000094FFF79FFF1A4903A800F073
:1084900063FF2800C82203A95200F03002F0CCF894
:1084A000FA2603A80BF0FEFDB600300000F022FD16
:1084B000114903A800F050FFD9239B00E81803A935
:1084C0000CF094FF03A80BF0EDFD280000940B4B7B
:1084D00001221D21D030FFF777FFE6E7D4200020EE
:1084E00080200020E18101008982010031830100A8
:1084F00071830100AD7D0200AF7D0200B93C020036
:1085000070B50F4D280000F057F80E4C0E492200B0
:1085100028000EF0B0FE0D4D0D49280001F006F8C0
:1085200022000C4928000EF0A6FE0B4D280000F09A
:108530004DFF2800220009490EF09DFE70BDC04687
:10854000D42000200020002061850100CC200020E4
:108550008C7D02001F420200D0200020A5400200B6
:10856000CA23144A9B0010B5C2501C330400C01823
:108570000BF098FDD0239B00E0180BF093FD20003A
:108580009130FF3001F0EEFA20006930FF3001F049
:10859000E9FA2000F03001F06BFE2000D03002F04C
:1085A00075FA2000643007F06BFE201DFFF700FF16
:1085B000200010BD5C7702001423F0B5040093B0D6
:1085C000192200931821043002F0F4FD2300250045
:1085D000260064331800B43513211093B83607F021
:1085E0005BFE28000CF07DFF00221E2130000CF005
:1085F00013FC2000D03002F069FA2300F033474A20
:1086000006211800119301F057FE200000270123D6
:1086100069301A0000971121FF3001F0AFFA2000F5
:1086200091300097012302221A21FF3001F0A6FAAF
:108630002000B930022201211A23FF3002F004FB8E
:10864000300001F0A5F8E4235B00E050300001F0B9
:10865000F1FAE6235B00E0500100E4222000520022
:10866000D130119BA2580095FF3001F035FD20005C
:10867000E13029001C22FF3002F034FF19232000D2
:108680000F93013B0E93013B0D93013B0C93013B78
:108690000B93013B0A93013B0993013B0893013B78
:1086A0000793013B0693013B0593013B0493013B78
:1086B0000393013B0293013B0193F930013B0822F4
:1086C00000930721013BFF300CF0C7FBCA239B003E
:1086D000E018290003F022FFD3239B00E0181D219E
:1086E00002F082FBDD239B00E750109827700321E6
:1086F0000EF0FDFA23002200200009499C33A0322D
:108700001C6011605760074A80305A6102210122C3
:1087100007F038FF200013B0F0BDC046D872020049
:10872000E53C0200D13C02000123F0B5057891B090
:1087300007001D4063D10300D0331800049300F0FC
:10874000BDFA00F0E1F928200EF0A0FD0400103081
:108750000BF037FD684B6580238018200EF096FDE6
:108760000600664B80C603901022290030000E934D
:108770000F950AF009FB08220EA930000AF072FAE0
:108780005F4B039AE56053611223A260A3802562C8
:1087900065622100049802F009F9002805D0200044
:1087A0000BF036FC20000EF06DFD01233A785549A0
:1087B00013433B703B00B433180005930CF097FE55
:1087C0005149039005980CF092FE00260690642013
:1087D00000F090FB340035003B006933FF33180094
:1087E00007930BF00AFF00280BD1039B002B11D13C
:1087F000069B002B0ED14549454800F05BFC11B0AB
:10880000F0BD38009130FF300BF0F7FE0028ECD0BF
:10881000182DEADC3800653021B232B2FF23FF3078
:10882000013400F017FEE4B2322000F063FB0135A2
:10883000052C02D100240136F6B2039B192D06D077
:10884000002BC9D02F49059802F0E2FD01E0002B72
:10885000F8D103980EF016FD06980EF013FD2B4983
:108860002C4800F027FCDD239B00FB580893002BCD
:1088700038D100F05DF801000AA800F06DFD0BF0A2
:10888000B7FA08900BF0B4FA6B460990198C0CA853
:108890000BF024FC099B0DA8190C0BF01FFC0DAA72
:1088A0000CA90BA80BF06AFC0DA80BF0FBFB0CA8A5
:1088B0000BF0F8FBCA20012380000BAA0AA9009341
:1088C0003818049B03F080FE0BA80BF0EBFB0AA802
:1088D0000BF0E8FBCC239B00FB580893DD23089AA0
:1088E0009B00FA50CA2339009B00079AF031F81810
:1088F00004F064F870E7C046FD030000593D020033
:10890000193D0200E77D0200F27D020000200020F8
:1089100008000020001C0020BFF34F8F024A034BC9
:10892000DA60BFF34F8FFEE70400FA0500ED00E0C8
:10893000F0B58DB005AF1922154938000AF092F94B
:108940000022144B05245A7180225205566E0122D2
:1089500025000194029203930199300008F000FB76
:108960000800029908F076FA019B03996B43019382
:10897000029B361A6B430293631E2C1B6C433C19FB
:10898000225C1C1ECA54E7D108000DB0F0BDC046E1
:10899000027E020076290020F0B595B01822002151
:1089A00006000EA80AF0F0F913210EA80EF0EBFA5B
:1089B00003210EA80EF07DFB4C4B1B68002B00D151
:1089C0000133DBB202934A4A0123002109A807F0D0
:1089D00049FF484B9E4200D9002672B6464B1022F2
:1089E000002105A81D680AF0CFF9444B642130002E
:1089F0000593052408F0B8FA604350302818069013
:108A00000A21300008F0B0FA0A2108F093FB614314
:108A100050316918079130000A2108F08BFB802340
:108A200061430024503169189B0108910093029B17
:108A3000002B59D0002500232E1F019305AB9B1955
:108A40000393032C03D1802300249B01009305ABE7
:108A50002B4A585963000133D31800221100102605
:108A60005F1E3F783E4137001E78865D3E4202D051
:108A700001279740394301320633092AEFD1C94310
:108A8000204B09011940039B1B68984229D1019B87
:108A9000312B26DC002109A80EF0C4FBFA23139A1F
:108AA0000F99DB00106801421ED0013B002BF9D169
:108AB000009B01345B000093019BE4B201330193FE
:108AC000FA23019A5B009A42BBD10435102DB2D132
:108AD000064B1B68002BAAD0029B013BDBB2029322
:108AE000A5E7009B1943D6E7FFF716FF6024002097
:108AF000F0FF0000E703000004200020517E020088
:108B00001B7E0200F01F0000F8B50023124C23600A
:108B10000BF060F9002808D0042120000BF056F972
:108B2000002801D00D4B2360F8BD0122A1270425A8
:108B30000B4B0C491A602268FF0048604E68002EFB
:108B4000FCD0DE591202013D3243002DF5D12260E6
:108B500001225A60E8E7C0465C240020ED5EBC0BB1
:108B600000D00040FCD000400B4B70B51C68002CBE
:108B700010D0656D00F0ACFBA36C002901D18342DD
:108B800006D820000BF059F9044920000BF043F9F6
:108B90002C00ECE770BDC04668240020882400202B
:108BA000F0B5060093B007932A4B04901C682A4B3B
:108BB00005911F68069285B2360C002F47D000231E
:108BC0000293002C2FD0636D244803934823E318AD
:108BD0001A88A36C1B0C99B2854214D1204882429A
:108BE00011D1002B01D0B1420BD1029B002B08D137
:108BF00020000BF022F91B4920000BF00CF9012397
:108C00000293039CDDE7002A01D09542F9D1002BA5
:108C100001D0B142F5D120000BF00FF9114920002D
:108C20000BF0F9F8EDE7104BEB18012B0FD91023DF
:108C30003200009329000D4B08A80BF0D2F93B68D5
:108C400008A99B683800984708A80BF0E1F913B011
:108C5000F0BDC0469424002064240020FE030000E0
:108C6000FF0300008824002002FCFFFFA18B01000D
:108C700070B572B60B4B1C68002C08D020000BF0AE
:108C8000DCF80023E364084B2000E36370BD62B6A8
:108C90005C200EF0FBFA050021005C220AF074F85B
:108CA0002C00EEE78C24002000400020024B1878B6
:108CB000012318407047C0467C290020F7B5060004
:108CC000FFF7F4FF051E33D11A4C2660FFF7D0FFE3
:108CD000194B1A4918600BF09EF8FFF7C9FF184BA3
:108CE0001860184B4363184B8363206800280ED02C
:108CF000C027164E2A00330015490097FFF764FB82
:108D0000009733002A0013492068FFF75DFB0C2011
:108D10000EF0BCFA0023838083710F4B03600F4B6E
:108D2000836000F0EDFA01230D4A11780B431370B4
:108D3000F7BDC04664240020982400208824002029
:108D400090240020FC3F0020013F0200A18B010085
:108D5000FF030000FE030000F8720200698B0100AF
:108D60007C290020F7B506000D00170001930028AC
:108D700002D100242000FEBD0029FAD0FFF778FFC1
:108D8000041EF6D0074B019A436306604560876076
:108D9000054B002A00D0054BA363054920000BF0CA
:108DA0003AF8E7E7FC3F0020CB3E0200E93E020034
:108DB00088240020024B1868434258417047C0463F
:108DC00088240020002310B504499C006258002A22
:108DD00001D00133F9E76050100010BD702400206D
:108DE000002310B5044A99008C58844201D0013305
:108DF000F9E70020885010BD7024002010B5002431
:108E0000074BE058002802D003685B689847043499
:108E1000182CF5D1034B1B68002B00D120BF10BDCF
:108E20007024002088240020F8B5FFF73FFF0028B9
:108E30001CD02A4D2C68E36CDA0718D502273B4377
:108E4000E364274B1E680423F26C30001343F36481
:108E5000636BF3630BF017F83000716C04F0B5F935
:108E60002868C36C3B4201D004F0E9F9F8BD1D4FFE
:108E70001D4E3A68002A02D132682A6007E0216D4F
:108E8000B942FAD1616D002900D1110029602A6828
:108E900031688A4208D11B0706D52C60FFF7AEFF68
:108EA0003B68002BFAD02B6029688C42DED03368F7
:108EB00099420BD10D4B4B630D4B8B6320000AF095
:108EC000E2FF2968626C4B6C200004E09C42F5D103
:108ED000002210004B6C04F037F9C7E798240020FB
:108EE0006C2400208824002090240020FC3F0020D7
:108EF000013F020070B50500FFF7D8FE002803D13E
:108F000028000EF0CFF870BD0C4B1C68E36CDB073B
:108F100006D5FFF7ADFE0A4B1860002800D004000C
:108F200000F0D6F92D18A56420000AF086FF054947
:108F300020000AF070FFFFF777FFE4E79824002095
:108F40006C24002068240020F0B51E4B1E4F1C68C6
:108F50003B6885B006000391002B30D0FFF7A6FEDA
:108F600000282CD0E36CDB070ED5FFF781FE174BF2
:108F7000051E186008D00AF060FF154928000AF0A5
:108F80004AFF2C00FFF750FF039B20001B043343D4
:108F9000A3640AF052FF20000E490AF03CFF0E4B7A
:108FA0000020F318012B08D9C0230093039A0B4B20
:108FB00031003868FFF708FA002005B0F0BD084816
:108FC000FBE7C04698240020642400206C24002085
:108FD000882400209424002002FCFFFFA18B0100C4
:108FE00016FCFFFF10B5FFF761FE002809D0054C05
:108FF00020680AF022FF044920680AF00CFFFFF7FE
:1090000013FF10BD982400208C240020F7B5070022
:109010000D0000282ED0FFF749FE00282CD0072491
:10902000164E3068C36C1C4007D0154A2900380022
:109030000AF01AFF00242000FEBD04F0E8F8022127
:109040003268D36C1940019103D003218B43D36460
:10905000F1E701242343D3642800B8473268D36C76
:109060001900A143D164019C5B07E4D528000AF0F4
:1090700033FFE0E7034CDEE7034CDCE798240020F5
:10908000D93E020017FCFFFF16FCFFFF020010B5DF
:10909000014B12CB12C210BD9C240020034B1A6856
:1090A000034B1A607E225A607047C046042000209D
:1090B0009C24002070B5114E3278022A1AD08142C9
:1090C0001AD90C1A072C17D90D00032305432B407E
:1090D00012D172B60A4DD2005051AA1851608022A6
:1090E000A40812061443046032780132327062B66A
:1090F000180070BD0348FCE70348FAE77E2900200A
:10910000A424002013FCFFFF17FCFFFF70B5134CD5
:1091100006002378124D002B0CD1124912482B70F7
:10912000FFF7C8FF114B984202D11E20FFF734FC15
:109130000123237000242B789C4209DA0C49E300B8
:10914000C91830000AF0E2FE002805D10134F2E728
:109150001420FFF721FC002070BDC0467D290020AF
:109160007E29002000380020482A002017FCFFFF3D
:10917000A424002070B5002819D0104B10491C7889
:109180000023A34216DADA005558A84210D98A18EB
:10919000526890420CD2041F2368002B02DC1E2070
:1091A000FFF7FAFB802322681B061343236070BD80
:1091B0000133E6E71E20FFF7EFFBF8E77E290020EA
:1091C000A424002070B5051E14DD0B4E0B4C336833
:1091D000002B02D020680DF0EFFDFA21206800245A
:1091E000074B89008361C462694335600DF0ECFD73
:1091F000200070BD0348FCE7B4240020E4240020D4
:10920000AD92010017FCFFFFF8B5114F06003D6855
:10921000002D0AD130200EF039F8040007F096F83E
:109220000C4BA5612360E5623C600B4D2B68002B65
:1092300009D110200EF02AF804000DF012FE2000D3
:109240002C600DF0E8FD3000FFF7BCFFF8BDC04614
:10925000E4240020047B0200E0240020014B186875
:109260007047C046B424002070B50D4C2368002B15
:1092700003D00C4B1B68002B02D10620FFF7C4FF64
:1092800020680DF0DFFD02000749C3170D684E6826
:109290005219734120680A604B600DF0D9FD70BD12
:1092A000E0240020E4240020A820002010B5FFF7CF
:1092B000DBFF0024054BE058002802D003681B6840
:1092C00098470434282CF5D110BDC046B82400209E
:1092D00010B5FFF7C9FFFA22034B920018685968CE
:1092E000002307F067FF10BDA820002010B5FFF78E
:1092F000BBFF024B1868596810BDC046A82000206B
:109300000B4B10B51B680400002B03D0094B1B68E6
:10931000002B02D10620FFF777FF0023064A9900B1
:109320008858002801D00133F9E78C5010BDC046A1
:10933000E0240020E4240020B8240020002310B5FD
:10934000044A99008C58844201D00133F9E7002087
:10935000885010BDB824002010B50400002902D0A8
:109360000B78002B03D1034B2360200010BD0AF0C3
:10937000A0FEFAE708730200F8B504000E0015001D
:1093800000290AD00B78002B07D0002A05D008004E
:1093900097B209F0DDFE874203D90B4B2360200012
:1093A000F8BD681DFFF7B2FE20600BF027F82068BB
:1093B0002A0047803100043009F054FC23685D190D
:1093C00000232B71EBE7C04608730200014B0360DA
:1093D0007047C0460873020010B50548054C206070
:1093E0000BF00FF8044A054920000DF044FF10BDB2
:1093F00008730200E824002000200020A54002009D
:10940000084B73B51C680500002C0AD001002668C3
:1094100008310822684609F025FC0CCD316820008F
:10942000884773BDEC240020014B03607047C046A1
:109430001073020010B50400002903D1044B03602F
:10944000200010BD016008000AF0DBFFF8E7C0460D
:109450001073020030B500684488A14206DA85889E
:10946000AA4203DA002901DB002A01DA034830BDF1
:1094700054434018001983710020F8E717FCFFFFE0
:10948000F0B5070085B00E001D00002921DD002A7F
:109490001FDD002B1DD00468638803938B4200DD21
:1094A0000391A3880293934200DD029200230634C5
:1094B0000193019B029A93420EDA29002000039A3D
:1094C00009F0D0FB3B68AD195B88E418019B0133C0
:1094D000EEE7024805B0F0BD0020FBE717FCFFFFF8
:1094E000F8B504000D0016001F00002901DB002A5A
:1094F00002DA0D4B2360F8BD100048430630FFF739
:1095000005FE20600AF07AFF23685D809E80002FB0
:1095100006D03B00320029002000FFF7B1FFEAE748
:1095200020000AF0A0FEE6E710730200F7B506007F
:109530000D1E1BD000200F000400010001903B789D
:10954000002B1ED03022524294469C446246092A87
:1095500015D90A2B0ED1019B241801330193A14286
:1095600000DA2100002004000137E8E7164B036011
:109570003000FEBD0028F7D001340020F4E70120C0
:10958000F2E76A460127928809B212B230007F42A0
:10959000FFF7A6FF39000A2033689A1D2C78002CAB
:1095A000E6D02300303B092B08D8FB43DB173B40B8
:1095B00043431B19303B1F000135EFE7002FFBDB56
:1095C000177001320F00F7E710730200F0B587B093
:1095D000009004A815001E000F00FFF757FD009B28
:1095E0001B685A8895422ADA9B88B34227DD1F2FD1
:1095F00025DD059B01939F4221DC052300217B4350
:109600000193049B0293019B029A5B18A03BD35CDD
:109610000022039373189C46009B57191B685888B7
:109620000400874202DA988860450ADC0132052A84
:10963000F2D101310529E6D1002007B0F0BD07487D
:10964000FBE7DB1910276046174160431B1803989E
:109650000740781E87417F429F71E7E717FCFFFFB5
:10966000F7B5036806009C1D5B880D005A1A01922D
:10967000002919DD0027994203DB0AF0F4FD0020E0
:1096800013E033689B889F42F9DA6119019A200040
:1096900009F0E8FA019B2900E0180AF0C7FD3368D9
:1096A00001375B88E418ECE70048FEBD17FCFFFFBC
:1096B00010B50548054C20600AF0A3FE044A054990
:1096C00020000DF0D8FD10BD10730200F024002022
:1096D000002000201F42020010B5054C012120008F
:1096E0000AF083FE034A044920000DF0C4FD10BDBA
:1096F000F424002000200020AB4302000388074A26
:1097000010B50120934208D0834202D00020DB072D
:1097100003D41E20FFF740F9002010BDFFFF00001A
:109720000048704716FCFFFF10B53220FFF734F9F0
:10973000004810BD16FCFFFF8280142210B5134CA8
:109740000281083402000023046041620224010007
:10975000303283718472C360036143618361C3618A
:109760000362363113705370438683860A78A243AE
:10977000F13422400A70020040321370021DD38778
:10978000013343878387C38710BDC046307302000F
:10979000F0B5544F97B03B6806000593002B00D0FE
:1097A0008BE006AC0B331C222121200001F084FA4F
:1097B0000EAD0B231D2222210AA801F07DFA0B23F6
:1097C0001B222321280001F077FA08200DF05EFD0E
:1097D0000122059B110004900CF09CF93A21300005
:1097E0000BF006FF00281DD0A38812ADAB80A37933
:1097F0005C20AB713C4B1293A3681493237B2B73B7
:10980000637B6B73A37BAB730DF040FD042301936B
:10981000363300932A00049B3100040002F066F9FD
:109820003C604AE0322130000BF010FF00281CD0D1
:10983000A38812ADAB80A3795C20AB712A4B129345
:10984000A3681493237B2B73637B6B73A37BAB7332
:109850000DF01CFD042301932E3300932A00049B7A
:109860003100040002F0E0FADAE73C2130000BF0AE
:10987000A8FE00282CD0AB8812ACA380AB79A42022
:10988000A371194B1293AB6814932B7B23736B7BDF
:109890006373AB7BA3730DF0F9FC05230500029302
:1098A000013B0193383300932200049B310002F006
:1098B0003BF80E4B3D6044351D600C4B094C18685D
:1098C000002802D021680AF006FF206817B0F0BD1A
:1098D00044200DF0DBFC042204990400FFF72CFF68
:1098E0009EE7C046F824002020730200FC240020DC
:1098F000F0B56149C56885B08D4254DA0300022293
:1099000036331B78134059D104698C4264DA020063
:1099100036321278520768D4426901920200019EE1
:1099200040328E426FDA010036310978090774D46B
:10993000002B7DD113780293002B16D0060001274F
:10994000011DCB8F363601339BB2CB870396367819
:10995000BC46374000D188E01D2B06D963469E43A4
:10996000039B1E700023CB8713700AF094FD434ABB
:109970000723904276D94249043B8D4272DBC822CC
:109980000133920095426DDC023B8C426ADB013B65
:10999000944267DC01980433884263DB01339042D0
:1099A00060DC00235EE0C822002352009542ABDD5C
:1099B000030036331A7800239207A5D4012306004A
:1099C0001F00363632785408A7433C0002279C40DB
:1099D000BA432243327097E7C822520094429BDD7B
:1099E000020036321278520796D40600012236362B
:1099F00033789F08BA439700042293431A003A43EE
:109A00003270012388E7C821019E49008E428FDD14
:109A100001003631097809078AD401000126363160
:109A20000B78DF08BE430827F600BB4333430B70B7
:109A30001378032B00DD7DE70133DBB21370012BBC
:109A400003D10021031DD98774E7042B00D071E7EF
:109A5000020036321178033B0B43137000230430AD
:109A6000C3870B33180005B0F0BD092B00D87CE785
:109A7000029BCF87013B77E770FEFFFFFF7002007C
:109A8000E0FCFFFF70B5C369C2681B688AB00400C0
:109A9000451D1A4207D0EB7F002B09D0013B06E0A1
:109AA0003300032239E0EB7F0B2B01DC0133EB7732
:109AB000EB7F082B0DDD0122A379134209D113435B
:109AC000A371A188130006A80AF086FBFFF700FC2B
:109AD0002062EB7F012B23DC0123A2791A421FD0E5
:109AE0000025A188A571022202A80AF075FBA31D1A
:109AF000DE7F012E14D1FFF7EBFB2B00226A801AC8
:109B0000994100900191019BA188AB4203D1134B75
:109B1000009A9A42C4D90123042206A80AF05CFBE9
:109B20000322A3791340012B0AD1FFF7D1FB0023B5
:109B3000226A801A9941994204D1094B984201D86E
:109B40000AB070BD0223A279A1881343A371052234
:109B5000012306A80AF040FBF2E7C046E703000035
:109B6000DB05000010B50400034B08330360FFF76A
:109B7000E5FB200010BDC04664730200F0B507008D
:109B800000250E0085B002930AAB1B7808370393BB
:109B9000104B040008330360019285808571290011
:109BA0001822380009F0F0F8039A310038000DF05F
:109BB000EFF96B466A469B88127AA380A31DE67173
:109BC000DA77631D25622000DD77FFF799FB20001F
:109BD00005B0F0BD647302000048704716FCFFFF3B
:109BE00010B53320FEF7D8FE004810BD16FCFFFF6D
:109BF000002310B50400838083710D482164083070
:109C000020608020C000A061E0612062E36020004D
:109C1000236163616362A362E36223636363A3639B
:109C2000E363636411000AF02EFD200010BDC046FE
:109C30007C730200F0B5534F97B03B680600059364
:109C4000002B00D08BE00B331C22212106A80AAC8C
:109C500001F032F80EAD0B231D222221200001F06D
:109C60002BF80B231B222321280001F025F80820C4
:109C70000DF00CFB0122059B110004900BF04AFF34
:109C80001D2130000BF0CBFC00281DD0A38812ADA5
:109C9000AB80A3796020AB713B4B1293A368149304
:109CA000237B2B73637B6B73A37BAB730DF0EEFA9B
:109CB00005230193183300932A00049B310004000C
:109CC00001F0E8FF3C604AE03C2130000BF0D5FC9D
:109CD00000281CD0A38812ADAB80A3796020AB71A3
:109CE000294B1293A3681493237B2B73637B6B73B1
:109CF000A37BAB730DF0CAFA0523019337330093AE
:109D00002A00049B3100040002F030F9DAE73C211C
:109D100030000BF056FC00282BD0AB8812ACA3808F
:109D2000AB79A420A371184B1293AB6814932B7BCF
:109D300023736B7B6373AB7BA3730DF0A7FA0523CF
:109D400005000293013B0193383300932200049BEA
:109D5000310001F0E9FD0D4B1D6044353D600B4BBA
:109D60001A68084B002A01D019684A64186817B0AD
:109D7000F0BD48200DF08AFA052204990400FFF78F
:109D800037FF9FE7FC24002020730200F824002006
:109D900082B0F0B50400EBB06420719370920DF0C6
:109DA00081F905220EA811000AF066FA97490FA85A
:109DB000FFF7BCFB00221FAB6AA91A605A609A60C9
:109DC0000C338B42F9D11922002111A808F0DCFFD5
:109DD000A0680BF01AF800260990FF21A06800F097
:109DE0004BFD8B4FA06800F05FFB07960896079B22
:109DF000182B00DDBEE0864B9F4203D0854B9F426F
:109E000000DBAEE0A0680BF002F8A568824918A854
:109E1000FFF7A2FA782218A9280000F073FC18A80E
:109E20000AF040F900267A4F0322089B606801334C
:109E30001A4008920AF0C7FB050060680AF0CAFBE6
:109E40000022764B04929D4210DB013204922A00DC
:109E5000C8320BDBAA22042192000491954205DC52
:109E600003220492C82D01DC013A049200220592DB
:109E7000984210DB012305930300C8330BDBAA23B0
:109E800004329B000592984205DC03230593C82801
:109E900001DC013B05930EA80AF0E5F9002511ABA2
:109EA000EB5C012B08D15E496B00CA185278C95C83
:109EB0000EA8FF23FFF7CEFA0135192DEFD16B461F
:109EC00014229A5E6B460EA81021595E089BFFF77C
:109ED000C1FA002F01DB0F2E07DD0022A0680092DF
:109EE000743013000EA90AF0D4F900230693069BE0
:109EF00004985A004A4BD15C814227D19B185B7869
:109F0000059A934222D12C2206AB9B18069A9B5CA1
:109F1000012B1BD00C23079A216853431D000022FC
:109F20000AA80AF0DAFB1FAA2B0094460AAA634487
:109F300023CA23C32C2206AB06999B182B3A5A54EA
:109F4000079B01360133DBB20793F6B2069B013360
:109F50000693192BCBD16420643F0DF0A3F83FB2D8
:109F600045E7002F02D00F2E00D05DE7A06800F07B
:109F70009BFA59E71FA918A8079A0AF0BDFD6A467F
:109F80001BAB23CB23C21B6813601899199A1A9B29
:109F900020680AF08AFBE568002D0CD0214910A842
:109FA000FFF7DAF91C2318AA10A928000BF0D4FA3D
:109FB00010A80AF077F8A0680AF029FF0FA910A8E6
:109FC000A5680AF039F90022174B009210A90193F5
:109FD0002800130000F006FB10A80AF020F9FA2070
:109FE00080000DF05FF8A0680AF011FF0999A068E1
:109FF00000F042FC0FA80AF012F90EA80AF00FF9BF
:10A000006BB0F0BC08BC02B01847C04631800200FB
:10A010008C3C0000D18AFFFF7680020058FDFFFFD4
:10A02000968002008B800200DC050000F0B587B04E
:10A0300001930EAB1B88060003930D9B0D0000934C
:10A04000019B02920C9F002B3ED0002F02D1009B5F
:10A05000DB0739D528200DF019F9040010300AF07B
:10A06000B0F86B461B891820258063800DF00EF92F
:10A07000049707000500009B10220593019B002117
:10A0800008C7380008F080FE082204A9380008F04C
:10A09000E9FD0E4B02226B6100230399E36023620A
:10A0A000636233680A43A560A2805B6821003000C8
:10A0B0009847002806D0200009F0AAFF20000DF0E4
:10A0C000E1F8034807B0F0BD0248FBE71B47020078
:10A0D00016FCFFFF17FCFFFF70B58CB08360109B70
:10A0E00001604260C3600400184918000BF0FFF9DA
:10A0F000051E14D001001C22103105A808F0B2FD85
:10A100006A4608AB43CB43C21B68136020680599BD
:10A11000069A079B0AF0C9FA28000DF0B3F80C4B19
:10A12000186800280ED00B4A05AB05920022069253
:10A13000C03202926A4622CB22C2230003220521AA
:10A14000FFF774FF20000CB070BDC0468B8002008A
:10A15000EC240020919D0100F0B5040085B0637AE5
:10A160009C46002B04D120000AF0E3FC05B0F0BDB2
:10A17000A37A266F01931023019AF35600259B18AA
:10A1800001229A402900F36802920393039B9D42A7
:10A1900031DAB368019A6B439B1872695B00E77A06
:10A1A000D3181A785878E379012F14D15F1E3F1A1B
:10A1B00010003A005B004343606F8218D3189B790C
:10A1C000634500DD6346627B1A4202D00123AB4047
:10A1D00019430135DAE7022F05D15F1EBA1A277A33
:10A1E000013F381AE6E7032FE4D1277A013FBF1A6F
:10A1F00002003800DEE71123C943F356606C994032
:10A2000023691940029B19430DF00CF8A37B072B1F
:10A21000ACDC627B581C520062730B499A00A0733D
:10A22000022B03DC88580CF032FF98E7074B200024
:10A23000236300236363064B8958E462236414306C
:10A240000CF0C2FD92E7C046A873020059A10100BC
:10A250001F4B020010B50400044B03600CF0ACFD72
:10A26000200006F089F8200010BDC046047B0200E3
:10A2700010B504000E4B08330360FFF75FF82000B1
:10A28000743009F0CCFF2000603009F0C8FF2000D6
:10A29000583009F007FF2000503009F003FF20007C
:10A2A000044B14306361FFF7D5FF200010BDC0469A
:10A2B000C8730200187B0200F8B500250400324B79
:10A2C0008580083303608571143016000F0006F096
:10A2D0003DF820002D4BE562636125645030FFF7A7
:10A2E00075F820005830FFF771F820006030FFF754
:10A2F0009BF820000423F25E33682667590009B2F8
:10A30000743009F0B9FF3378226FE3717368012666
:10A3100023721023E572A572A7802561D356916838
:10A3200059188B4204DA3000984001330543F8E7AE
:10A3300011230120D356D16859188B4206DA020046
:10A340009A402669013332432261F6E714200CF06B
:10A350009DFF226900212A430123060006F082FAAC
:10A36000FF22627222000023012548326664657371
:10A37000A373237320001370A366FEF7C1FFA379B4
:10A3800020001D43A571F8BDC8730200187B0200B0
:10A39000F0B5437A85B00400002B04D120000AF008
:10A3A000C8FB05B0F0BD0122837A11009C46102342
:10A3B000066F0025F35603926344994001912900EA
:10A3C000F3680293029B9D422CDAB36872696B4377
:10A3D00063445B00E77AD3181A785878E379012F41
:10A3E00010D15F1E3F1A10003A005B004343606FBC
:10A3F0008218D3189B79002B02D0039BAB401943E2
:10A400000135DFE7022F05D15F1EBA1A277A013F17
:10A41000381AEAE7032FE8D1277A013FBF1A020072
:10A420003800E2E71123C943F356606C9940236971
:10A430001940019B19430CF0F5FE667AB31EDBB29E
:10A44000FC2B14D8FEF70AFF0B4B050023630023F7
:10A450000A4863630A4BFF21E4622364704306F0F9
:10A4600083FD29004143200014300CF0ADFC637AD9
:10A47000012B00DD95E791E7334B0200B6030000A6
:10A480001F4B02001FB5012381881A00684609F09E
:10A49000A3FE012303491A00684609F09DFE05B09A
:10A4A00000BDC046FE0300001FB5030048331A7804
:10A4B0000400002A0DD000221A70012381881A009E
:10A4C000684609F089FE012304491A00684609F02C
:10A4D00083FE2000743009F0C6FE1FBDFF0300009C
:10A4E00010B548300378002B06D00378012B03D039
:10A4F0000121024809F0E0FC10BDC046FF03000046
:10A5000010B501210400062009F0D6FC064B984244
:10A5100008D148342378002B04D02378012B01D0B4
:10A5200020BFF7E710BDC04616FCFFFF70B5060060
:10A53000141E0ADB050048352B78002B07D02B783A
:10A54000012B04D00A4C200070BD0A4CFBE700230D
:10A5500030001A007430FFF739F8002CF3D03300C4
:10A560004A331C80002407234C3634802B70EAE7E2
:10A5700012FCFFFF17FCFFFFF8B517000A68050083
:10A5800052880B00012A09D10021180009F00CFEA5
:10A59000002201002800FFF7C9FFF8BD002F09DDE8
:10A5A000060048363278002A06D03278012A03D0D5
:10A5B0000A48F2E70A48F0E72A00002428005C3243
:10A5C00019001480583009F0CAFD2B004A331F804F
:10A5D00003234C352C8020003370DEE712FCFFFF94
:10A5E00017FCFFFF73B5079C0500002C0ADB060073
:10A5F00048363078002807D03078012804D00C4C39
:10A60000200076BD0B4CFBE76846007E1BB2009035
:10A61000280012B2743009F03CFE002CF0D02B0060
:10A620004A331C80002407234C352C803370E7E725
:10A6300012FCFFFF17FCFFFFF7B505000E00171E09
:10A6400026DDFFF74DFF2B0048331C78E4B2002CC9
:10A6500020D133685B88012B09D12100300009F03B
:10A66000A3FD220001002800FFF760FFFEBD3100BE
:10A6700001A809F06CFD3A0001A92800FFF77CFF52
:10A6800001A809F00FFD2800FFF73AFF2000EDE7D1
:10A690000148EBE70148E9E717FCFFFF11FCFFFF6A
:10A6A000F0B587B00D9C06000F0002920393002CBA
:10A6B00020DBFFF715FF330048331D78EDB2002D86
:10A6C0001AD1390005A809F0B7FD0C9B019400933D
:10A6D000029A039B05A93000FFF784FF05A809F043
:10A6E0009EFD002C03D03000FFF70AFF2C00200055
:10A6F00007B0F0BD014CFAE7014CF8E717FCFFFF8B
:10A7000011FCFFFFF8B50400171E09DD06004836EE
:10A710003378002B06D03378012B03D00C48F8BDDA
:10A720000C48FCE72200E3795632013B137023000A
:10A730000025200054331D80503009F010FD230007
:10A740004A331F8002234C34258028003370E6E70B
:10A7500012FCFFFF17FCFFFFF7B505000F00161EE8
:10A7600018DDFFF7BDFE2B0048331C78E4B2002C47
:10A7700012D1390001A809F0EAFC320001A9280031
:10A78000FFF7C0FF01A809F08DFC2800FFF7B8FE15
:10A790002000FEBD0148FCE70148FAE717FCFFFF77
:10A7A00011FCFFFFF8B50400161E0DDD0700483749
:10A7B0003A78002A0AD03A78012A07D01548F8BD1D
:10A7C0006B4618229B5E07E01348F8E75D42069B44
:10A7D000FF33F5D16B1D1BB22200643213802300BE
:10A7E000200066331D70603009F02EFD230000222A
:10A7F0006C331A70954200D0350023004A331D8017
:10A80000079B013E5A1E93414C340533268000209D
:10A810003B70D4E712FCFFFF17FCFFFFF0B587B0D9
:10A8200005000F00161E03931EDDFFF759FE2B00D7
:10A8300048331C78E4B2002C18D1390005A809F07F
:10A84000FBFC0D9B320001930C9B05A90093280093
:10A85000039BFFF7A7FF05A809F0E1FC2800FFF71D
:10A860004FFE200007B0F0BD0148FBE70148F9E7C3
:10A8700017FCFFFF11FCFFFFFF2902D841720020E7
:10A8800070470148FCE7C04617FCFFFF13B5040002
:10A8900004A80078009020000CF001FA002801D1F3
:10A8A000207516BD0048FCE70EFCFFFF13B5040041
:10A8B00004A80078009020000CF0D9F9002801D1FC
:10A8C000207516BD0048FCE70EFCFFFF7FB50D00AC
:10A8D00011000F226A4404001E1E117016D0089B3E
:10A8E000002B13DD012329000093FFF7DFFF002871
:10A8F00002D0074804B070BD0090089B32002900C8
:10A900002000FFF7C3FF0028F4D0F2E70148F1E789
:10A910000EFCFFFF17FCFFFFF7B507000D1E3FD031
:10A920000023022604690193002C35D0AA88A3884D
:10A930005340334204D1324204D1AB88334226D053
:10A94000646AF1E7A968A0680BF0C9F80028F4D0A0
:10A950002B88002B02D022889A42F1D16B88002BE1
:10A9600002D062889A42EBD1EB68E268934201D050
:10A97000002BE5D17B68002B01D020009847A288EE
:10A98000084B1343A380019B01330193D8E7A368CD
:10A99000AA689342D4D1DBE7019B2000002B00DCA6
:10A9A0000148FEBD0080FFFF17FCFFFFF0B5060069
:10A9B00085B00D1E00D160E001270469002C26D06F
:10A9C0000221AA8800230A4202D0A3885B083B40E8
:10A9D000226829688A4218D1002B12D0A968A06881
:10A9E0000BF07DF8002810D0EB68E26893420CD1A0
:10A9F000A3881AB2002A02DA5B045B0CA380204809
:10AA000011E0A368AA689342EED0646AD6E7316980
:10AA10002A880F000B1E08D13561012319496846A9
:10AA200009F0DAFB002005B0F0BD1888904205DA85
:10AA3000586A1F0000280ED00300F6E718003B00FC
:10AA40000488944207D147886C88A74203DC446A93
:10AA50000300002C0BD199420BD10888824204DB01
:10AA600007D14C886888844203DD6962D4E72000FE
:10AA7000E6E7596A69625D62CFE70348D3E7C046FB
:10AA800016FCFFFFFD03000017FCFFFF064B10B58F
:10AA90001A00040008322C33026083600830FEF78D
:10AAA0009FF9200010BDC046E073020008B4024BBD
:10AAB0009C46083808BC60478DAA010008B4024BC8
:10AAC0009C46083808BC6047814F02000C4A0023AE
:10AAD00011002C32083110B543608381837382608A
:10AAE000036143618361C383016004000830FEF7A2
:10AAF00069F9044B1A68002A00D11C60200010BDBF
:10AB0000E0730200EC240020F7B50E000125046973
:10AB10000192002C36D0238832889A4201D0002B33
:10AB20002AD1638872889A4201D0002B24D1FEF783
:10AB3000BDF80123002806D0C022A3881340C03BE3
:10AB40005A425341DBB2019A934214D1A7883BB2D7
:10AB5000002B10DB10223100A01808F083F84023EE
:10AB60001F420BD1FEF7A2F8002807D021000648AB
:10AB7000FEF74CFA00E00025646ACAE720000AF0FC
:10AB800008FAF9E72800FEBD934F020008B4024B13
:10AB90009C46083808BC60471B510200F0B587B0DE
:10ABA00001930EAB1B88060003930D9B0D000093D1
:10ABB000019B02920C9F002B3ED0002F02D1009BE4
:10ABC000DB0739D528200CF061FB0400103009F0B8
:10ABD000F8FA6B461B891820258063800CF056FB21
:10ABE000049707000500009B10220593019B00219C
:10ABF00008C7380008F0C8F8082204A9380008F08F
:10AC000031F80E4B02226B6100230399E36023624B
:10AC1000636233680A43A560A2805B68210030004C
:10AC20009847002806D0200009F0F2F920000CF027
:10AC300029FB034807B0F0BD0248FBE7555102006D
:10AC400016FCFFFF17FCFFFFF0B5040016000025FF
:10AC50008380164A164B85710260218146810573F7
:10AC6000186889B08C46A8421DD0124A05950492F6
:10AC7000C02202926A4604AB82CB82C261462300A4
:10AC80002A00FFF78BFF0B4A094B0692C022186877
:10AC900002926A4606AB079582CB82C223002A0045
:10ACA0003100FFF77BFF200009B0F0BD24740200E3
:10ACB000EC2400207F52020030B5002403730123EE
:10ACC000034D84710560818082734373846030BD5D
:10ACD0002073020070B583790400DB0702D5806819
:10ACE0000CF0D0FAA3799B0702D5A0680CF0CAFA41
:10ACF000A3795B0707D5A0230021144ADB00D150BC
:10AD0000A0680CF0BFFAA3791B0708D5A568002D31
:10AD100005D028000AF054FF28000CF0B3FAA379FC
:10AD2000DB0605D5A068002802D00368DB689847D9
:10AD30006023A2791A4205D0A068002802D00368D7
:10AD40005B6898470023A360A37170BD007000404A
:10AD5000F7B50126037B040033422BD061238579AC
:10AD60001D4017D1FFF7B6FF18200CF08FFA0E2305
:10AD70000700E35618220093637B2900019308F033
:10AD800003F8019A009938000CF002F9A379A76042
:10AD90003343A3716023A2791A4203D0A0680BF059
:10ADA0009FFFFEBDA3685A69586812681040431E91
:10ADB0009841F6E70048F4E716FCFFFF10B50124C0
:10ADC000837941731C4004D080680CF072F9002034
:10ADD00010BD6022134203D080680BF088FFF6E7B5
:10ADE0000048F5E716FCFFFF70B5040000250D4B89
:10ADF0000E000833858085710360210018300AF049
:10AE0000F1FA2000210020300AF017FB064BA68043
:10AE1000A571E5712572E5602561656120001C6002
:10AE200070BDC0463474020000250020072906D8F2
:10AE30000020044B044A5956044BD1507047044833
:10AE4000FCE7C04653810200001000400C050000E2
:10AE500017FCFFFF8379DB0702D5C1600020704734
:10AE60000048FCE716FCFFFF8379DB0701D5C068CB
:10AE700070470148FCE7C04616FCFFFF70B5456906
:10AE80000400002D20D0037A032B1FDCFFF7ECFF1A
:10AE9000A8622C200CF0FAF92C220021050007F002
:10AEA00073FF0023626953622369002B07D122617B
:10AEB0000020237A65610133237270BD0B00596A4B
:10AEC0000029FBD15A62F3E70148F6E70148F4E7AD
:10AED00017FCFFFF13FCFFFF144B70B55A68144CAE
:10AEE000002A03D000225A600132A2601A69002AA7
:10AEF00017D0002119618023DB00E3580D4D012B91
:10AF000010D1A923DB00E15828684942FFF7A2FFCE
:10AF10002868FFF7B3FF2B685A69074BE2500123FB
:10AF2000A36070BD2868FFF795FFF8E7FC100040AC
:10AF300000100040002500200405000070B5050049
:10AF40000C0008F047FF002804D1034B034AEC71C2
:10AF5000D45070BD0248FCE72405000000100040FA
:10AF600016FCFFFFF8B5837905000020DB0768D4E5
:10AF700008F030FF002865D16E69002E08D12C3012
:10AF80000CF084F904002C22310007F0FDFE6C6106
:10AF90006B69002B58D000222C4B01215A60802273
:10AFA000D20511605A68002AFCD00622284B294C91
:10AFB0009A56294B0026E2500722043BE250083300
:10AFC000E650264A264B2800E250E979FFF7B6FF03
:10AFD00001220821234B2448E6500433E250234B3E
:10AFE000234FE1500433E0500223224823502248EB
:10AFF0002750224F043827501827214827506F69BF
:10B0000020482750C120800021501F498538FF3833
:10B010000B500B608021890060580E33034363504E
:10B020001A4B5E6062605A68002AFCD00026012735
:10B030001E612800A760FDF7C5FE3000AB791F43F5
:10B04000AF71F8BD1248FCE71248FAE7FC00004077
:10B0500053810200001000400C0500007469627505
:10B060001C0500002C05000020000402140500004F
:10B07000FFFF0000340500003C0500002110010026
:10B08000540500000405000000E100E0FC10004051
:10B0900016FCFFFF13FCFFFF03000069002809D026
:10B0A0000221054AD167426A1A611A7A013A1A7274
:10B0B000024B19607047C04604E100E000E100E087
:10B0C00070B504000D0008F085FE00283AD1002D6F
:10B0D0003AD02B78232B37DC02221C4B1C49DA6731
:10B0E0001C4B013A58610A615A69002AFCD00020C1
:10B0F000194A8D5058600130086058680028FCD00B
:10B10000002018610130886018690028FCD060694F
:10B11000885000225A6101320A615A69002AFCD023
:10B1200000225A6001324A605A68002AFCD000208E
:10B13000186101238B60C0210222084B49005A503C
:10B140001A6070BD0648FCE70648FAE704E100E033
:10B1500000100040FC1000400405000000E100E089
:10B1600016FCFFFF17FCFFFF30B505008DB000296E
:10B1700012D0232A10D801ACD31C00202370012345
:10B18000A07002A86370E37007F06CFD21002868CE
:10B19000FFF796FF0DB030BD0048FBE717FCFFFF3F
:10B1A00010B5002903DB024B19600BF0E7FD10BD61
:10B1B0000425002070B504001E0004AB1D7805F0C6
:10B1C0008FF820000E4B40302360FEF7FFF823007D
:10B1D00001364C33013522001E701D730023E1211E
:10B1E0004E32A3646365138053809381D381013B06
:10B1F000200063644902FFF7D3FF200070BDC04602
:10B20000D0720200F7B580277F053D697C6908226E
:10B21000113C6C4306002100684607F023FD104BEB
:10B22000009A9A4219D00093002301937969300063
:10B23000133969430AF016F9019A009930000AF0AF
:10B2400029F9210030000AF00DF97969AB081339AA
:10B250006943220030000AF00FF90198FEBDC04694
:10B26000FECA0000F0B50D00ABB00D9200213022F7
:10B27000060012A80B9307F087FD280007F068FF6F
:10B28000431C0C93102B00DDB7E00B9B202B00D947
:10B29000B3E0290030000AF02AF9071E56D1290030
:10B2A0000C9A12A807F0DEFC0D990B9A16A807F06D
:10B2B000D9FC80235B051F695A693000113A7A4333
:10B2C0005D690D92FFF79EFF0D9B30220833002130
:10B2D00004001EA80F9307F057FD29001339794386
:10B2E00030000AF0BFF80F9B0B9300230C930E93D2
:10B2F0000C9BA34249DA0B9930221EA807F0B2FC3E
:10B3000012A91EA807F0E0FE00282DD13D4930000B
:10B310002200109111940AF0BDF86A460B9B099324
:10B3200015AB23CB23C223CB23C223CB23C23000B4
:10B33000149B1299139A0AF0BBF801230E930B9BEE
:10B3400030330B930C9B01330C93D1E710300B9AE5
:10B350000D9907F061FC040038000BF093FF002CFE
:10B360009DD120002BB0F0BD6A460B9B099321AB09
:10B3700023CB23C223CB23C223CB23C230001E996D
:10B380001F9A209B0AF094F8D9E7E5433021ED1786
:10B3900025404D430F9B5D190E9B002B1BD1B81E02
:10B3A00005F058FD84422AD01649013430002200AD
:10B3B000109111940AF06EF86A46099515AB23CBEB
:10B3C00023C223CB23C223CB23C230001299139A6A
:10B3D000149B0AF06DF80D9930000AF043F88023B1
:10B3E0005B0559690C2363431339023379430D9A82
:10B3F00030000AF041F80024B3E7034CB1E7034CF6
:10B40000AFE7C046FECA000017FCFFFF13FCFFFFBA
:10B410008023F0B55B051A6995B002925A690591CF
:10B420000299113A51435C69029B133C0500039158
:10B430005C43FFF7E7FE061E39D00027039B30224E
:10B4400008330021083408A8019307F09DFC21006F
:10B4500028000AF007F80497B74220DA0199302251
:10B4600008A807F0FFFB059908A807F02DFE0028A3
:10B470000DD11A49721E2800069107920AF00AF8A7
:10B4800001230493019B013730330193E4E7220049
:10B490000C230199280009F0EFFF3034F2E7049BF8
:10B4A000002B06D10D493200280009F0F3FF0C48AB
:10B4B00012E00399280009F0D5FF80235B05596944
:10B4C0000C23029A13394A437343110028000233B4
:10B4D000039A09F0D1FF002015B0F0BDFECA0000AC
:10B4E0000CFCFFFF70B50400A280FA2200230800C4
:10B4F0000C49920008312160A3716061E260A36091
:10B500006382094909F0F3FF051E09D001002000FC
:10B5100010310222123007F0A5FB28000BF0B2FE1A
:10B52000200070BD4C740200C880020030B50225B6
:10B53000837987B004002B4204D1FDF743FCA37943
:10B540001D43A57120000AF018F800281CD06B4696
:10B55000DD1C28000AF008F82B78002B17D001A872
:10B560000AF000F80321019AD3170B409B189B1097
:10B570002382FDF7ADFEE368A18818180123A060BF
:10B580001A0002A808F028FE002007B030BD0122F2
:10B59000064B1A60064A51680029FCD00021516010
:10B5A000044A1268019201225A60DBE700C00040A1
:10B5B000FCC0004008C50040022802D10122014B16
:10B5C0001A7070477F29002070B5064C050023785B
:10B5D000002B04D1044802F037FE01232370280019
:10B5E00070BDC04680290020B9B5010070B50C00BF
:10B5F00008F0F0FB002810D00023144DA40A2B7093
:10B60000200009F0CEFF002803D00A200BF04AFDED
:10B61000F6E72B78002BFCD070BD02210C4B0D4AB5
:10B6200099508021C90008005D58002DFCD0A1214F
:10B63000C9005C5019580029FCD000219950802184
:10B64000C9005A58002AFCD0E6E7C0467F290020EE
:10B6500000E0014004050000F8B50C0015001E00D4
:10B6600008F0B8FB002811D00023174F3B703200C0
:10B670002900200009F093FF002803D00A200BF0D6
:10B6800011FDF4E73B78002BFCD0F8BD01210F48F9
:10B690000F4B844619508021C9005A58002AFCD00B
:10B6A00080270022FF00964207DD91006858605015
:10B6B000D9590029FCD00132F5E7002261465A50E1
:10B6C000DA59002AFCD0E0E77F29002004050000B9
:10B6D00000E0014008B4024B9C46443808BC604777
:10B6E000A7550200FA21F8B50389C900040059439F
:10B6F00032480AF00AFAFA21890005F0ABFB304F14
:10B700002081A17A38000AF000FA230026002500E3
:10B7100022894C33A072A0361A808C3531780023F0
:10B720002A22286809F080FB002801D02548F8BDAE
:10B7300031781F235B22286809F076FB0028F5D1B9
:10B74000317820235C22286809F06EFB0028EDD1B7
:10B75000317801232C22286809F066FB0028E5D106
:10B76000317801232D22286809F05EFB0028DDD105
:10B77000317801232E22286809F056FB0028D5D104
:10B78000A17A38000AF0BCF93178C3B20E222868D9
:10B7900009F04AFB0028C9D1FA21238989005943BD
:10B7A00006480AF0ADF901230343DBB231782A22BF
:10B7B000286809F039FB0028B9D0B7E76C7402009B
:10B7C000647402000EFCFFFF08B4024B9C46443830
:10B7D00008BC6047E5B60100074B10B51A0004002D
:10B7E00008323C3302604364443008F01AFF200002
:10B7F00008F043FE200010BDCC74020008B4024BD8
:10B800009C46443808BC6047D9B7010008B4024BD5
:10B810009C46443808BC6047B1550200F0B5042589
:10B8200083798BB004002B4204D1FDF7CBFAA379C6
:10B830001D43A57120009030FFF78AFA0026B04220
:10B840000FD12300A033197820000C2307AD0093FB
:10B850008C302B0001220068FFF738F8061E03D059
:10B860002C4E30000BB0F0BD0A2304AA9B182A7896
:10B870005A706A781A700022985EAA785A70EA782C
:10B880001A700022995E03912A795A706A791A70A7
:10B8900000229F5EAA795A70EA791A7000215A5ED6
:10B8A00004922A7A5A706A7A1A7000215A5E0592B6
:10B8B000AA7A5A70EA7A1F251A7000229B5EA27A31
:10B8C0009C46039B504359425143CB172B407A432C
:10B8D0005B185B11A361C3172B401818D3171D40C9
:10B8E0006423AD18059A5B425343A3676423614602
:10B8F000049A40115A434B43E2676D11221DE061E7
:10B9000025622000D36708F031FE2000443008F0A3
:10B910008FFEA6E70EFCFFFF08B4024B9C4644389E
:10B9200008BC60471DB80100F7B51E00040008AB55
:10B930001B881500019309AB00911A8831000AABEE
:10B940001F88FDF7F9FE20003A0031004430FEF771
:10B950004FF9134B20001A003C3363642300083274
:10B960002260009A8C331A60AB8890308380AB7968
:10B970006A4683710B4B92880360AB680321836036
:10B980002B7B03736B7B4373AB7B83732300A033ED
:10B990001A80FFF713FA2000FFF7A4FE2000FEBD77
:10B9A000CC74020020730200F8B5FA260189B600B3
:10B9B0000400714326480AF0A8F8310005F04AFA5D
:10B9C000244F2081A17A38000AF09FF82500A07248
:10B9D0005835297800232A22606C09F025FA0028BE
:10B9E00001D01D48F8BD297810232B22606C09F086
:10B9F0001BFA0028F5D1297801232D22606C09F06B
:10BA000013FA0028EDD1297801232E22606C09F069
:10BA10000BFA0028E5D1A17A38000AF071F82978EC
:10BA2000C3B20E22606C09F0FFF90028D9D1218938
:10BA3000074871430AF064F801230343DBB2297815
:10BA40002A22606C09F0F0F90028CBD0C9E7C04683
:10BA5000347502002C7502000EFCFFFF10B50400C7
:10BA6000034B0833036008F008FD200010BDC046FA
:10BA7000947502007FB50425837904002B4204D11C
:10BA8000FDF7A0F9A3791D43A57120004830FFF709
:10BA90005FF90025A8420DD12300583319780623F9
:10BAA00002AE009301223300606CFEF70FFF051E0B
:10BAB00003D00D4D280004B070BD022300210420E6
:10BAC000F356A27ADB00715630565B425343C000F6
:10BAD000C90051434243A3612368E16122629B6A2A
:10BAE00020009847E6E7C0460EFCFFFFF8B50400CB
:10BAF000150006AA168807AA0F0012881900FDF77C
:10BB00001BFE0F4B6764083323602300AA88483369
:10BB10009A80AA7920009A710A4AA264AA682265CA
:10BB20002A7B1A736A7B5A73AA7B9A730023A371C8
:10BB3000230058331E80FFF737FF2000F8BDC046B2
:10BB4000947502002073020010B50400034B083303
:10BB5000036008F066FD200010BDC0462876020094
:10BB6000F0B507005C3787B0040039780023102255
:10BB7000806C09F059F90326002802D01F4807B04D
:10BB8000F0BD0F2502ABED18012339780822009390
:10BB9000A06C2B00FEF79AFE184B9842EED02B7843
:10BBA000334203D06420FDF7A5F9EAE7FA2621899C
:10BBB000134DB6007143280009F0A7FF310005F0CE
:10BBC00049F920813978A0231122A06C09F02CF9C1
:10BBD0000028D3D1A36C21890393714328003F78B7
:10BBE00009F08EFF01231843C3B2102239000398D5
:10BBF00009F01AF90028C2D0C0E7C0460EFCFFFFCA
:10BC0000C875020070B50825837986B004002B4200
:10BC100004D1FDF7D7F8A3791D43A57120004C305E
:10BC2000FFF796F8061E0DD023005C331978062323
:10BC300004AD009301222B00A06CFEF747FE061E08
:10BC400003D0134E300006B070BD0E232A786B442B
:10BC50005A706A7820001A700022995E64224A4362
:10BC6000A263AA785A70EA781A700022995E642258
:10BC700052425143616329795970697919700021E1
:10BC80005B5E5A432368E2631B6A9847DAE7C04663
:10BC90000EFCFFFFF8B50400150006AA168807AAD7
:10BCA0000F0012881900FDF7A3FF0D4BA76408339E
:10BCB00023602300AA884C339A80AA7920009A71C5
:10BCC000084AE264AA6862652A7B1A736A7B5A731F
:10BCD000AA7B1E829A73FFF743FF2000F8BDC0467F
:10BCE0002876020020730200F7B5FA250189204F5B
:10BCF000AD0004006943380009F007FF290005F092
:10BD0000A9F8A17A20811B4809F0FFFE2600636C88
:10BD1000A072009321895836337869433800019323
:10BD200009F0EEFE07230343DBB2202201990098BD
:10BD300009F07AF8002801D00F48FEBD31781023B1
:10BD40002222606C09F070F80028F5D1A17A094828
:10BD5000656C377809F0D4FE80235B420343DBB285
:10BD600023223900280009F05FF80028E5D0E3E736
:10BD70005C760200547602000EFCFFFF10B5040052
:10BD8000034B0833036008F078FB200010BDC04669
:10BD9000CC760200F0B50425837985B004002B42EF
:10BDA00004D1FDF70FF8A3791D43A5712000483099
:10BDB000FEF7CEFF061E0DD0230058331978062358
:10BDC00002AD0093A8222B00606CFEF77FFD061EDB
:10BDD00003D0144E300005B0F0BD1F200023EA5EF2
:10BDE000D31703409B180222A95E5B11CA170240B9
:10BDF000521804216F5E5211F9170140C9194911F7
:10BE00002B806A80A980A07A5B424343524242431E
:10BE10004143E3612368A26121629B6A2000984745
:10BE2000D8E7C0460EFCFFFFF8B50400150006AACF
:10BE3000168807AA0F0012881900FDF77DFC0F4B2A
:10BE40006764083323602300AA8848339A80AA795C
:10BE500020009A710A4AA264AA6822652A7B1A7392
:10BE60006A7B5A73AA7B9A730023A3712300583309
:10BE70001E80FFF739FF2000F8BDC046CC760200D7
:10BE800020730200F7B5FA2504000189134EAD00B6
:10BE90006943300009F039FE290004F0DBFF270078
:10BEA000A36C208100935C373B7881B269433000FA
:10BEB000019309F025FE6022C3B20199009808F0B1
:10BEC000B3FF002801D00648FEBD39780123622265
:10BED000A06C08F0A9FF0028F6D0F4E70077020074
:10BEE0000EFCFFFF10B50400034B0833036008F09D
:10BEF00098FB200010BDC046287702007FB50825BA
:10BF0000837904002B4204D1FCF75CFFA3791D4325
:10BF1000A57120004C30FEF71BFF051E0DD023003D
:10BF20005C331978062302AE0093E8223300A06C3C
:10BF3000FEF7CCFC051E03D00B4D280004B070BDED
:10BF40000223F25E96235B425A4362630021725ED3
:10BF500020005343A3630423F25E96235343E36319
:10BF600023681B6A9847E8E70EFCFFFFF8B504005A
:10BF7000150006AA168807AA0F0012881900FDF7F7
:10BF800037FE0D4BA764083323602300AA884C3387
:10BF90009A80AA7920009A71084AE264AA686265C8
:10BFA0002A7B1A736A7B5A73AA7B1E829A73FFF7E5
:10BFB00069FF2000F8BDC046287702002073020008
:10BFC00010B50400054B083303601C3008F06AF814
:10BFD0002000183008F066F8200010BD54770200E9
:10BFE000FF23F0B52B4D8DB02B7000230400694664
:10BFF0000088009303F01CFF002802D16B469B7859
:10C000002B70254E3368DB68002B07D10023208876
:10C010001A00190009F03CFB0DB0F0BD2B78032B82
:10C02000F4DC1E4901A8FDF797F9336801A9DE6821
:10C0300004A808F08CF804A9300009F087FA06007B
:10C0400004A808F02FF8371E1ED03100202210312E
:10C0500004A806F007FE30000BF014F9297804ABB1
:10C06000C9005918082202A806F0FCFD2088012307
:10C07000082202A909F00CFB0127002804D120881E
:10C08000074A0C2109F002FB01A808F00BF8002F69
:10C09000C2D1BBE781200020142500205B81020073
:10C0A000FFFF0000F0B5837991B004005B071BD55A
:10C0B000FDF70EF900232269801A9941994203D1B4
:10C0C000F423FF3398420FD9A068002808D0364BDC
:10C0D0001D8801F061F9036815221B6A2900984741
:10C0E0000422A3799343A371A3799B0759D52F4DBC
:10C0F0002B68DB68002B50D02D4B1B78032B4CDCBE
:10C10000294B2C491B8804A80193FDF725F92B68BE
:10C1100004A9DE6808A808F01AF808A9300009F098
:10C1200015FA070008A807F0BDFF02AB9E1D082303
:10C130003200338006A9073B019809F0ABFA002FC3
:10C1400008D039002022103108A806F08BFD3800F5
:10C150000BF098F8164B32881B7806A9DE0008AB66
:10C160009E19300006F058FD002813D0082206A9B9
:10C17000300006F077FD2B6804A9DD6805A807F0FC
:10C18000E6FF202308AA05A9280009F0E5F905A87B
:10C1900007F088FF04A807F085FF0222A3799343E4
:10C1A000A37111B0F0BDC04628290020142500203D
:10C1B000812000205B810200F7B504000025019278
:10C1C000C77FBD4251DA66197078884218D11529A7
:10C1D00027D801228A402748024222D0F91801209C
:10C1E0001F291DDCE1193718B9420ED800218B42F6
:10C1F0000FDD019A7018575C01318770C9B2F6E7FC
:10C20000605D2D180135EDB2DBE70878C8540139BF
:10C21000EAE7625D9A186255E27F9B18E377002097
:10C22000FEBD655D013DEDB2AB4209D10023AB42DD
:10C23000F5DA019AF118D05C01338870DBB2F6E7C9
:10C24000DF197F1B01201F2FEADC0227A81C7F4279
:10C2500036187F1BE07F2218964203D23078F055C3
:10C260000136F7E7451B023DE577019A200009F00A
:10C270005BFAD5E7FC002000F0B585B001930AAB6E
:10C280001E880BAB1B78451C02930EAB1B78040079
:10C2900003930B78170003704B8A102243820131FD
:10C2A000280006F0DFFC6B469B88268363836B4681
:10C2B0001B7B002623776B4601221B7A6761E6838E
:10C2C000EB77A31CDA7724210C9B0C2563622300F7
:10C2D000200004AA5218127828331A705E709E70DB
:10C2E0002A0031002C3006F04FFD2000064BE6639B
:10C2F000A3632A003100403006F046FD2000034BC6
:10C300002665E36405B0F0BDAB5602009D56020001
:10C3100070B50D0001F040F804000368002D09D14C
:10C320005B699847FA2080006843074904F092FD52
:10C33000E08070BD9B6898478542F3DA236820004F
:10C340009B6898470500EDE771020000F0B5070013
:10C350001600A1B002C70400684918A81D0009F022
:10C3600015FA301E01D006F0F3FE012204920022DD
:10C3700083B203920292023201920093320018A912
:10C380003800FFF779FF23005D49583318A8079359
:10C3900009F0FCF9281E01D006F0DAFE0122049211
:10C3A000002283B2039202920232019200932A0089
:10C3B00018A90798FFF760FF23005249AC3318A86B
:10C3C000089309F0E3F92698002801D006F0C0FE92
:10C3D00001220492002283B203920292023201925D
:10C3E0000093269A18A90898FFF746FF631CFF33AD
:10C3F000454918A8099309F0C9F92798002801D0E0
:10C4000006F0A6FE01220492002283B20392029259
:10C41000601C023201920093279A18A9FF30FFF79F
:10C420002BFF23005533FF33384918A8099309F02F
:10C43000ADF92898002801D006F08AFE0122049266
:10C44000002283B203920292023201920093289A50
:10C4500018A90998FFF710FF2300A933FF332C49CF
:10C4600018A80A9309F092F92998002801D006F03B
:10C470006FFE01220492002283B20392029218AD51
:10C48000023201920093299A29000A98FFF7F4FEDC
:10C49000204B1B780B93002B2DD1079B12971393E6
:10C4A000089B0DAF1493631CFF331593099B1A4926
:10C4B00016930A9B3800179309F068F91D2149204B
:10C4C0003B7810222B707B8A12AE6B8206ABC918A8
:10C4D000C01806F0C7FB06232B756B469B8D2068A2
:10C4E000AB83AE6100F068FF036829001B689847C2
:10C4F0000122084B1A70200021B0F0BD292A00004B
:10C50000242A0000252A0000272A0000262A0000ED
:10C51000282A0000812900200A18000070B5002593
:10C5200004000B4B8580083385710360C1601830AF
:10C53000FCF74CFF20001C30FCF748FF0123621C75
:10C54000D377044AA560656120001460A37170BDB3
:10C550005477020014250020FA2130B585B005007B
:10C56000012302228900684607F036FE074C206846
:10C57000002809D009F043F92988054B2268198061
:10C58000022391790B43937105B030BD142500202F
:10C590002829002010B50C0007290AD8806800F06F
:10C5A000FBFE064B195703685B6C9847002802D1C5
:10C5B00010BD0348FCE70348FAE7C0465381020078
:10C5C00017FCFFFF16FCFFFFF0B5A54C0D00A544BE
:10C5D000040007939AAB1B78A24909A8049306921A
:10C5E000FCF7BAFE200029001C3007F0B8FDC0207F
:10C5F000800001F01FFE08200AF048FE070000211D
:10C6000000F092FE15AD0021A7600C220EA806F0E6
:10C61000BBFB2B000EAA43CA43C3934B2900EB601C
:10C62000002338002B6109F0D1FAA06800F0B4FEB5
:10C630000C2200210590280006F0A6FB14200AF029
:10C6400025FE8A4B2A0015930300C2CAC2C3884B39
:10C65000059EC3600023A43603613368002B00D01D
:10C66000F7E03060A06800F0A7FE0C220021060071
:10C67000280006F089FB14200AF008FE7D4B159374
:10C68000030086CD86C37C4BC36000230361336BFC
:10C69000002B00D0DFE03063A06800F07DFE15AD18
:10C6A0000C2200210600280006F06EFB14200AF080
:10C6B000EDFD724B98361593030086CD86C3704B03
:10C6C000C360002303613368002B00D0C5E001255F
:10C6D00004AB1B7C04AA2B43306008A92800137408
:10C6E00008F0DAFFA06800F077FE036865495B6A2E
:10C6F0009847A06800F070FE036863499B699847FB
:10C70000A06800F069FE002302680093166804998F
:10C710002A00B047049B002B0AD0200009F078F8CB
:10C72000032805DDA06800F057FE0368DB68984722
:10C730000EA808F0F0FF2F2004ABC01808F0EBFFA4
:10C74000362004ABC01808F0E6FF3D20042504ABFA
:10C75000C01808F0E0FF0EAB0A93A06804AB5D7749
:10C7600000F03AFE03680AA91B699847A06800F028
:10C7700013FE03680AA95B6D9847A06800F00CFEE1
:10C7800003680021DB6D9847A06800F005FE036890
:10C7900002219B6D984700212000FFF7FBFE182027
:10C7A0000AF074FDA16800F057FA384B384A1B684C
:10C7B000A1680393374B15A81B680CAE0293364B48
:10C7C00000271B680193069B1B685B190093334B82
:10C7D00012681B68FFF7BAFD30200AF057FD079A70
:10C7E000A16800F0FFFAA06800F0D6FD03683100F0
:10C7F0009B6A98470823A0683380DB187380B78052
:10C8000000F0CAFD03683100DB6A98472900A06880
:10C8100008F0C8FF099A09219378A068521908F016
:10C82000D4FFA06800F0B8FD32210771A068FFF7BF
:10C830006FFD04AB1B7FBB4204D0A06800F0ACFDD1
:10C8400008F09AFF09A807F02DFC95239B009D4452
:10C85000F0BD036105E703611DE7036137E7C046EB
:10C86000ACFDFFFF40820200B956020059C501002D
:10C87000C7560200E1BF0100D5560200035702006F
:10C88000E3560200A1C80100D5C801001025002010
:10C890000C25002008200020082500200C20002066
:10C8A00013B506226846FCF767FD094B1C68002C8F
:10C8B0000AD0694601A807F04AFC200001A908F047
:10C8C000C8FF01A807F0EEFB684607F0EBFB13BDBD
:10C8D00014250020002373B501AE0C0031000500C3
:10C8E000019303F0A5FA002802D1B278064B1A7022
:10C8F000064B1868002806D061426141044BC9B25A
:10C900001D8008F0AEFF73BD81200020142500209B
:10C910002829002030B5284CA9B06A220D000DA8A6
:10C92000210006F09FF90DA903A8FCF783FD03A9D8
:10C9300006A807F081FC01230193013BFF3B009314
:10C940000533FF33642206A92800FDF767FF06A818
:10C9500007F065FC210019226A3106A806F082F969
:10C9600005220024110006AB04A807F08CFC04A9E2
:10C9700005A807F061FC019400942300220005A99A
:10C980002800FDF78DFE05A807F049FC21002800CE
:10C99000FDF772FF05340520FCF7ACFAFF2CF5D14A
:10C9A000FA208000FCF7A6FA04A807F038FC03A8D8
:10C9B00007F035FC29B030BDD0800200F0B59D4BAA
:10C9C00095B005921A68082307000291D16C06A859
:10C9D0000B43D3649849FCF7BFFC984907A8FCF7C0
:10C9E000BBFC3A0000240DAD28001C3206A907F05C
:10C9F000C5FB07AA290008A807F0C0FB280007F01C
:10CA000051FB7B1CDC77B86800F0C6FC03680BAEFA
:10CA10005B699847280008F07EFE2B2004ABC01805
:10CA200008F079FE322004ABC01808F074FE3920FB
:10CA300004ABC01808F06FFE0B950425B86875713B
:10CA4000347100F0A9FC036831005B6D9847B86849
:10CA500000F0A2FC036821009B6D9847B86800F0C5
:10CA60009BFC030006000A331F22210018000393D9
:10CA700006F08AF9039B3000DC7708F074FE06218B
:10CA8000B86808F08FFE089A09219378B86852199F
:10CA900008F09BFEB86800F07FFCC8210471B868FC
:10CAA000FFF736FCB86800F077FCFF260481B86811
:10CAB00000F072FC08F060FE0298FDF7F5FC38000B
:10CAC000FCF780F902993800FFF724FF029938003B
:10CAD00008F0DAFE0394049501257B691D402DD0F2
:10CAE000574909A8FCF722FD09A90AA807F0A4FBE9
:10CAF00000220AA91300019200920298FDF7D0FDCE
:10CB00000AA807F08CFB039B002B42D1043E282E81
:10CB100041DD0025FE2E00DC039D059807F06DFD2C
:10CB2000002806D001237A699A431300049A13431C
:10CB30007B61002409A807F072FB03957B69049AC6
:10CB4000134233D0FF210298C825FDF795FE00243B
:10CB5000AD00BB6902229B5E9C4222DA380021B202
:10CB6000183007F021FB0023010002981A007430EE
:10CB7000FCF72CFD2800FCF7BDF9029808F047F9F6
:10CB8000C820FCF7B7F902227B69134209D10134AE
:10CB9000DFE70436BBE7029808F039F9002EBCDD68
:10CBA000BAE7FA208000FCF7A5F9002402237D698A
:10CBB0001D421CD006331D4024D0224909A8FCF791
:10CBC000B5FC09A90AA807F037FB00220AA90192BF
:10CBD000009213000298FDF763FD0AA807F01FFBFF
:10CBE0001948FCF787F909A807F019FB174C6420CE
:10CBF000FCF780F9164B01349C4200DC6CE707F02F
:10CC0000FBF869E7134909A8FCF790FC09A90AA8F1
:10CC100007F012FB2B002A000AA901950095029843
:10CC2000FDF73EFD0AA807F0FAFA09A807F0F7FA9F
:10CC3000DDE7C0469824002067810200778102006A
:10CC400079810200BE810200983A00008C0A00003F
:10CC50008B0A0000FB81020000225C4BF0B5083318
:10CC6000060003600F001000A9B0B1600BAB99186B
:10CC700001324870102AFAD10F3A554C1A700E3210
:10CC8000105D991A0874013AFAD2997B5A7B09020D
:10CC90000A4331000C31039125211B7813AD2B7011
:10CCA00002ABC918452302A81B186A82180010227B
:10CCB00005F0D8FF039B64216B610123002402AAC5
:10CCC0002B832B775218093313701DAB1C706D2307
:10CCD00002AA9B181C706E2321009B181EA80C2210
:10CCE0006C83EC836C621C7006F04EF8394B0C229E
:10CCF000210023A8AB63EC6306F046F8364B032211
:10CD0000EB64462302A95B18DA7722002C650595AF
:10CD1000347306AD2B1901345A70102CFAD101234B
:10CD20002E482B700E33195CEA1A1174013BFAD2AB
:10CD300011212520AA7B6B7B12020BAC13432A78AE
:10CD4000638202ABC9182270C018102205F08AFF56
:10CD50000123237505ABA36100233800A38300F0F2
:10CD60002BFB036821001B68984713ABDB8BB06873
:10CD7000B38200F021FB002203680092B18A039A7B
:10CD8000DC680123A047B06800F016FB0700142000
:10CD90000AF07CFA04000C22002105F0F5FF0023C4
:10CDA00020002361069340C0013308222900079325
:10CDB00005F058FF0A4BE360BB69002B03D130003C
:10CDC000BC6129B0F0BD2361F9E7C0466C77020071
:10CDD00054820200AB5602009D560200648202009B
:10CDE000EB580200F0B500260400774BDDB00833A5
:10CDF00003608160C260868086713200734947A8F3
:10CE000008F013FE23001433089312230125019325
:10CE10000E3B04950093089A330047A903960296A7
:10CE20001DA8FFF729FA3200694947A808F0FDFD5F
:10CE30000C2322000193083B15AF10320495009398
:10CE400047A933000396029632A8FFF715FA32007D
:10CE50006049380008F0E9FD23001C3309930823DA
:10CE60000193043B390004950093099A330003961B
:10CE7000029647A8FFF700FA32005749380008F039
:10CE8000D4FD54200AF002FA23001833079312232A
:10CE900001930E3B390004950093079A33000396E3
:10CEA00002960690FFF7E8F9069B0822A3624B4B17
:10CEB0000AA90A93069B0B961800DC62303005F035
:10CEC000D1FE069A464B268293631300668229336D
:10CED0001D7023690422E3610999079805F0C2FED9
:10CEE00004220799089805F0BDFE6622032304A9D1
:10CEF0005218D377BA225218D37787225200521889
:10CF0000D377069A37490232D3771DAB0C9332ABF5
:10CF10000D9347AB0E93069B3200A68510A80F9386
:10CF200008F083FD30223121452004AB9B181B788B
:10CF300012323B7004AB9B181B88323A7B8204ABE5
:10CF4000C918C01805F08EFE04230CADA0683B750F
:10CF5000BD61BE8300F030FA036839001B68984752
:10CF6000822204AB9B181B885432238404AB9B1889
:10CF70001B885432A38404AB9B181B88A06863846D
:10CF800000F01AFA070014200AF080F905000C22BC
:10CF9000310005F0F9FE2800134B2E61082210C065
:10CFA00010A91093119605F05DFE104BEB60BB6964
:10CFB000B34206D1BD612000FBF704FF20005DB045
:10CFC000F0BD2B61F6E7C04678770200948202003C
:10CFD0007482020084820200A4820200FD590200D1
:10CFE00069590200B482020059D00100935902002D
:10CFF000F0B504000E00150085B000930CAB1B8843
:10D000001030019307F0DDF82680658018200AF0C3
:10D010003DF9070002AE33003D000AAA03CA03C36C
:10D02000009B102208C50021280005F0ADFE31004C
:10D030000822280005F016FE064B02227B61200024
:10D0400000230199A7600A43E360A2802362636220
:10D0500005B0F0BDBD590200F0B50B898DB0059348
:10D06000CB68050004934B88828C9A420ED1049CB5
:10D07000059B049A1B1BD318032B39DD628821887A
:10D08000012308A807F0A8F80434F1E7428C9A427B
:10D090002ED1049C059B049A1B1BD318032B27DD60
:10D0A0002388282006936388EF680793114B089321
:10D0B000002309930AF0EAF8C0236A4606000293A7
:10D0C00008AB03CB03C22B000699079A3000FFF789
:10D0D0008FFF3B6831005B6838009847002805D017
:10D0E000300006F095FF30000AF0CCF80434D1E7A8
:10D0F0000DB0F0BD7B5A020070B5040090B080689E
:10D1000008F0B6FC022101401AD1A38D002B17D0E4
:10D110000C4B6A4604931023E568A18505910293A0
:10D1200004AB41CB41C20A00230006A8FFF760FF11
:10D130002B6806A99B682800984706A806F068FF98
:10D1400010B070BD7B5A0200002815D0006041600D
:10D150008260C360046145618661C76144460462C0
:10D160004C464462544684625C46C462644604632E
:10D170006E46466374468463002A06D0C46B043C42
:10D18000043A25681560B442F9D18C6BA6464E6B03
:10D19000B546002B06D0CC6B043C043B1D682560D3
:10D1A000B442F9D10C6BA446CC6AA3468C6AA24661
:10D1B0004C6AA1460C6AA046CF698E694D690C691C
:10D1C000CB688A680868496870470060416082607F
:10D1D000C360046145618661C761444604624C4690
:10D1E0004462544684625C46C462644604636E468C
:10D1F000466374468463C46B043C043925680D603F
:10D20000B442F9D1C769866945690469704700600D
:10D2100041608260C360046145618661C7614446C4
:10D2200004624C464462544684625C46C46264466E
:10D2300004636C4644637446846304697047846B7A
:10D24000A646446BA546046BA446C46AA346846AFA
:10D25000A246446AA146046AA046C7698669456930
:10D260000469C368826800684168704710B5041E8D
:10D270000CD005F06DFF431EE3189C4208D22278C3
:10D280001978013B21705A700134F6E7014810BD4E
:10D290000020FCE717FCFFFFF0B585B002900C1EE4
:10D2A0002AD00023C217161A56400193019B300062
:10D2B0005D1C63190A215F1E039303F03BFF494283
:10D2C0003031397030000A2103F04EFE474206002B
:10D2D000002F0FD1029B002B04DA2D23019D039A0E
:10D2E00002351370002320006355FFF7BFFF38009D
:10D2F00005B0F0BD0195D9E7004FF8E717FCFFFF37
:10D300000268084B406810B5C018C0001018030030
:10D31000934205D31C688C4202D31800083BF7E700
:10D3200010BDC046FFFFFF1F002370B50400016061
:10D33000436099420AD1064D2B68002B02D108F0B8
:10D3400092FE286023689B00EB586360200070BD4C
:10D350002825002070B500280DD10C4C2668002E21
:10D3600007D1083009F092FF05003100FFF7DCFF1C
:10D370002560206870BD0122054906480B681340EE
:10D38000F8D1026043600A60F4E7C0461C25002023
:10D390001825002020250020436810B50400002B2C
:10D3A00002D1044809F0C6FD606803681B6998470C
:10D3B00010BDC046C4820200436810B50400002BB3
:10D3C00002D1044809F0B6FD606803689B6998477C
:10D3D00010BDC046C4820200436810B50400002B93
:10D3E00002D1044809F0A6FD606803685B6A9847AB
:10D3F00010BDC046C482020000487047FFFF000015
:10D40000F0B597B00593036807AD1B6804910393CB
:10D4100011002B00060091C991C30024D36821009C
:10D420000C220CA8EB602C6105F0AEFC22000B4B2B
:10D4300010940F9311AB1C70191901344A70102C01
:10D44000FAD15A820193059B2A00009304990CABF0
:10D450003000039CA04717B0F0BDC046195D020024
:10D46000FC3070B5046C0500002C0DD1242009F0AF
:10D470000DFF064B44608361054B8460C46004610A
:10D480004461C46103602864286C70BD6478020044
:10D490004C790200FC3070B5C56B0400002D11D131
:10D4A000342009F0F3FE084B85604360074B45616B
:10D4B0000361074B0562C361064BC5628362064B7D
:10D4C000E0630360E06B70BD947802008478020032
:10D4D000F478020004790200147902007FB5037920
:10D4E0001548002B1CD0154E154C33782000002B0E
:10D4F00016D102AD280008F0ECFB002815D16B888E
:10D50000592B12D12B78AA88D91F01290AD8009249
:10D510000C4A2021200005F095FD012333702000E6
:10D5200004B070BD0092084AF3E7202207492000AA
:10D5300005F040FEF3E7C046E7820200A229002082
:10D5400082290020018302001E830200438302001F
:10D5500010B50400024B08C008F09EFC200010BD6E
:10D560008478020010B50400024B08C008F0A9FC42
:10D57000200010BD94780200064B70B504000360D3
:10D580004068002804D0056909F07CFE2800F8E70F
:10D59000200070BD74780200064B70B50400036073
:10D5A0004068002804D0056909F06CFE2800F8E7FF
:10D5B000200070BDA4780200064B70B50400036023
:10D5C0004068002804D0056909F05CFE2800F8E7EF
:10D5D000200070BDB4780200064B70B504000360F3
:10D5E0004068002804D0056909F04CFE2800F8E7DF
:10D5F000200070BDF4780200064B70B50400036093
:10D600004068002804D0056909F03CFE2800F8E7CE
:10D61000200070BD04790200064B70B50400036061
:10D620004068002804D0056909F02CFE2800F8E7BE
:10D63000200070BD98770200064B70B504000360AF
:10D640004068002804D0056909F01CFE2800F8E7AE
:10D65000200070BDA8770200064B70B5040003607F
:10D660004068002804D0056909F00CFE2800F8E79E
:10D67000200070BDB8770200064B70B5040003604F
:10D680004068002804D0056909F0FCFD2800F8E78F
:10D69000200070BDC8770200064B70B5040003601F
:10D6A0004068002804D0056909F0ECFD2800F8E77F
:10D6B000200070BD64780200FC3070B5046C050079
:10D6C000002C0DD1242009F0E1FD064B446083615C
:10D6D000054B8460C46004614461C46103602864D4
:10D6E000286C70BD647802004C790200104B10B5B4
:10D6F000083303600F4B0400C36080230E4A5B00B5
:10D70000C250C018FCF7A6FD20000C4BB830E360F7
:10D71000FFF7B2FF2000AC30FFF79EFF2000A030E3
:10D72000FFF78AFF20006C30FFF776FF200010BD66
:10D7300078790200C0790200187B0200D8770200D5
:10D74000F0B50500040087B0AC356B68AB60A86825
:10D75000002807D0C36821009847AB68002BF4D09D
:10D760001B69F3E72500B0352868002804D0066956
:10D7700009F088FD3000F8E72200FC2158321378C8
:10D7800028600B40137023005C33187020000A30AF
:10D7900008F060FC2000343008F05CFC606E00286B
:10D7A00004D0056909F06EFD2800F8E725009835DA
:10D7B00060662868002804D0066909F063FD30001F
:10D7C000F8E728602500A4352E68002E05D03769BB
:10D7D000300009F057FD3E00F7E72E6001AD310043
:10D7E0000C22280005F0D0FA23002A006C3383CAEB
:10D7F00083C3094BE667A3670C223100280005F0BC
:10D80000C3FA2300803307CD07C33000034A9034A6
:10D810001A60266007B0F0BDFD5C0200EF5C0200FC
:10D82000444AF0B50600C260A022434B16360833C6
:10D8300003600100002342820400320085B00371BE
:10D840008360037483823531137001329142FBD1BE
:10D85000802580222000AD00D201F37735841100AD
:10D8600000933830002300F00DFF230021004033E7
:10D8700003931A002B0000255F31157001328A4294
:10D88000FBD1039AFC21D5772200603213801379F3
:10D8900020000B401371230068331D70274B256750
:10D8A000E3660C220021783005F06EFA2300270091
:10D8B00088331D60224B0837FB67843700210C2218
:10D8C000380005F061FA1F4B1F4AFB602300A033AC
:10D8D0003D611A601D4A5D60DA601D4A1D619A61F2
:10D8E000DD61300008F0B6FB039808F0B3FB194B7C
:10D8F000601CE3602300C4331D705D709D70FF30B9
:10D9000002F024FD8C235B00E55023001933FF3324
:10D910005D618023104A5B00E25023000122200059
:10D92000FE3352425A86023B9D63DD631D6405B09F
:10D93000F0BDC046D87702007879020098770200DF
:10D94000FD5C0200EF5C0200A8770200B8770200DD
:10D95000C8770200C0790200187B020070B5074C3E
:10D960002368002B07D1A020400009F08FFC0500A0
:10D97000FFF756FF2560206870BDC0462C250020AB
:10D9800070B50C220D000021040005F0FDF9002304
:10D990002361024B25602000E36070BD0B5D020037
:10D9A00070B500250400254B05710360244B4571BB
:10D9B0008360244BC5604361234B85610362234B25
:10D9C0004562C362224B05638363C563290044300B
:10D9D000FFF7D6FF200029005830FFF7D1FF2000C5
:10D9E00029006C30FFF7CCFF1A4B22002360230084
:10D9F0008032F83320C29342FCD126001D00E93664
:10DA0000FF36280008220021083505F0BDF9B5428F
:10DA1000F7D18E239B00E218002308C5AA42FCD14F
:10DA20008E2200219200A3540B4B0C4AE318A2183B
:10DA3000198002339A42FBD1200070BDC4780200E5
:10DA4000747802008478020094780200A4780200BE
:10DA5000B47802004C7A02003A0200006202000030
:10DA6000024B0B60092313607047C0464B830200D2
:10DA700010B504000020FFF771FF03681B69984789
:10DA80000300F3331C7086235B00C05003000021A9
:10DA9000044AFC335A61044A99615A62F43009F02D
:10DAA00093F910BD3163020043630200012110B5F8
:10DAB000044A080002F070FB031E00D00B2318007C
:10DAC00010BDC04671DA0100F0B5060093B0002029
:10DAD0000C00FFF743FF03685B6A984700F072FC95
